:020000040800F2
:10000000C80D0020AD010008EB1B0008571A0008BE
:10001000E91B000819030008B526000800000000CD
:10002000000000000000000000000000771F000832
:10003000CD03000800000000751F0008791F0008AC
:10004000C7010008C7010008C7010008C701000870
:10005000C7010008C7010008C7010008C701000860
:10006000C7010008C7010008C7010008C701000850
:10007000C7010008C7010008C7010008C701000840
:10008000C7010008C7010008C70100080000000000
:10009000000000000000000000000000C701000890
:1000A000C7010008C7010008C7010008C701000810
:1000B000C7010008C7010008C7010008C701000800
:1000C000C7010008C7010008C7010008C7010008F0
:1000D000C70100083D260008C70100080000000015
:1000E000C7010008C7010008C701000800000000A0
:1000F000000000000000000000000000C701000830
:1001000000000000C7010008C7010008C70100087F
:1001100000000000000000000000000000000000DF
:10012000C7010008C70100081D030008C701000837
:10013000C7010008000000000000000000000000EF
:10014000000000000000000000000000C7010008DF
:10015000C7010008C7010008C7010008C70100085F
:10016000C7010008C70100080000000000000000EF
:10017000000000000000000000000000000000007F
:1001800000000000C701000800000000000000009F
:10019000C7010008C7010008DFF80CD000F0AAF87A
:1001A00000480047B92A0008C80D002006488047CB
:1001B00006480047FEE7FEE7FEE7FEE7FEE7FEE74C
:1001C000FEE7FEE7FEE7FEE70D20000899010008C4
:1001D0002DE9F05F0546002092469B46884606467C
:1001E000814640241BE0284641464746224600F00F
:1001F00070F853465A46C01A914110D3114618461A
:10020000224600F057F82D1A67EB01084F462246A8
:100210000120002100F04EF817EB00094E41201E8E
:10022000A4F10104DFDC484631462A464346BDE8D6
:10023000F09FD2B201E000F8012B491EFBD27047BB
:100240000022F6E710B513460A4604461946FFF7A2
:10025000F0FF204610BD30B505462A460B4612F881
:10026000010B13F8014B08B1A042F8D01CB10028D3
:1002700002D06D1CF1E7284630BD421C10F8011B6E
:100280000029FBD1801A704730B50B46014600208B
:100290002022012409E021FA02F59D4205D303FA48
:1002A00002F5491B04FA02F52844151EA2F10102C9
:1002B000F1DC30BD202A04DB203A00FA02F10020F4
:1002C00070479140C2F1200320FA03F31943904094
:1002D0007047202A04DB203A21FA02F000217047FF
:1002E00021FA02F3D040C2F120029140084319469E
:1002F00070470000064C074D06E0E06840F001033F
:1003000094E8070098471034AC42F6D3FFF748FF53
:100310006C4B00088C4B0008FEE70000014800F021
:1003200073BB00003C05002001681823CAB2103AD4
:10033000B2FBF3F2054B6FF30901032A9B5CC36523
:1003400000D9091D8165084670470000C04A0008B1
:1003500010B5014600208B698A6A4FF0C07453B112
:10036000B3F5005F15D072B1012A0CD0022A0AD071
:10037000032A09D104E01AB1012A06D0022A03D1C6
:10038000C96AC90100D5012010BDC96AA142FAD0CD
:1003900010BD002AF7D0012AF2D0022AF3D0032A96
:1003A000F3D010BD30B50468256825F4802525609C
:1003B000046863608368402B036803D09960006819
:1003C000C26030BD9A600068C16030BD70470000F7
:1003D00010B5214C0020207000F064FA64221FA1A7
:1003E0001FA000F0A7F864221CA11FA000F0A2F833
:1003F00002F016FA022802D0052802D00EE01EA054
:100400000AE022A002F026FAD4E9010102F0AEF9D6
:1004100008B125A000E02BA002F01CFA64220FA175
:100420000FA000F087F82E4802F0C4F92C492DA047
:1004300002F010FA642209A12DA000F07BF86422DA
:1004400006A12FA000F076F8BDE81040642203A1B9
:100450002FA000F06FB80000040000204F4B0000F8
:1004600041540D0A0000000041542B43574D4F44A6
:10047000453D330D0A00000057694669E8BF9EE616
:100480008EA5E68890E58A9F0D0A0000E5BC80E510
:10049000A78BE8BF9EE68EA5E5A487E794A85769D9
:1004A00046690D0A00000000E5A487E794A8576993
:1004B0004669E8BF9EE68EA5E68890E58A9F0D0A0C
:1004C00000000000E5A487E794A857694669E8BFE3
:1004D0009EE68EA5E5A4B1E8B4A50D0A00000000D3
:1004E000B409002049503D222573220D0A00000066
:1004F00041542B4349504D4F44453D300D0A0000B7
:1005000041542B4349504D55583D310D0A000000D0
:1005100041542B4349505345525645523D310D0AE3
:100520000000000072B6FEE701460148FFF793BEE7
:100530009C0500202DE9F0418046174D1748002604
:100540000F462E70017814461548FFF779FE404695
:10055000FFF793FE82B24FF6FF734146114801F058
:1005600029FAB0B9AFB16CB913E00A2000F0BEFBB4
:10057000287838B13846FFF7D7FF10B10120BDE821
:10058000F0812E70641E2404240CEED106A002F02B
:1005900061F90020F3E700000100002000000020C6
:1005A0009C050020AC040020E8B685E697B60D0A4D
:1005B000000000002DE9F0410746FFF75EFE85B21E
:1005C0004FF4967211A112A0FFF7B4FF144C002053
:1005D0002070144801781448FFF732FE4FF480620F
:1005E0001149124801F0D6F94FF6FF7608E033467C
:1005F0002A4639460D4801F0DDF9642000F076FB0B
:1006000020780028F3D0BDE8F08100003E00000013
:1006100041542B43495053454E440D0A00000000FD
:1006200001000020000000209C050020AC040020F8
:10063000114910B500200870024610A110A0FFF764
:1006400079FF4FF47A7000F051FB64220DA10EA0E7
:10065000FFF770FF64220BA10FA0FFF76BFF64226E
:1006600008A111A0FFF766FFBDE81040642205A1B4
:1006700011A0FFF75FBF0000040000200000000091
:100680002B2B2B004F4B000041542B434950434C24
:100690004F53450D0A00000041542B4349504D4F24
:1006A00044453D300D0A000041542B4349504D55FF
:1006B000583D310D0A00000041542B434950534529
:1006C000525645523D310D0A00000000642202A13D
:1006D00002A0FFF72FBF00004F4B000041540D0A4E
:1006E00000000000184810B5007810B1012803D0B0
:1006F00010E000F0F9F80DE0002214A114A0FFF7BB
:1007000019FF4FF47A7000F0F1FA642211A112A0DF
:10071000FFF710FF4FF496720EA113A0FFF70AFF28
:100720004FF4FA7000F0E2FA64220AA11AA0FFF76F
:1007300001FF1DA0FFF73EFF03480C3001F06EFCE7
:10074000BDE81040FFF774BF040000200000000067
:100750002B2B2B004F4B000041542B434950434C53
:100760004F53450D0A00000041542B434950535448
:100770004152543D22544350222C227777772E62E7
:1007800065696A696E672D74696D652E6F7267227F
:100790002C38300D0A00000041542B4349504D4F76
:1007A00044453D310D0A0000474554202F74696DC2
:1007B0006531352E61737020485454502F312E31DD
:1007C000486F73743A7777772E6265696A696E67E6
:1007D0002D74696D652E6F72670D0A00184810B58B
:1007E000007810B1012803D010E000F07DF80DE092
:1007F000002214A114A0FFF79DFE4FF47A7000F0C0
:1008000075FA642211A112A0FFF794FE4FF49672BC
:100810000EA113A0FFF78EFE4FF4FA7000F066FAF7
:1008200064220AA119A0FFF785FE1C48FFF7C2FE4B
:100830001B4801F041FFBDE81040FFF7F9BE000082
:1008400004000020000000002B2B2B004F4B000069
:1008500041542B434950434C4F53450D0A0000006F
:1008600041542B43495053544152543D2254435018
:10087000222C226170692E73656E697665727365CC
:100880002E636F6D222C38300D0A000041542B432B
:1008900049504D4F44453D310D0A0000E04A0008E3
:1008A0009C09002010B564220BA10CA0FFF742FEAA
:1008B0004FF47A74204600F019FA204600F016FA38
:1008C000204600F013FA204600F010FA2046BDE85A
:1008D000104000F00BBA00004F4B000041542B5267
:1008E00053540D0A000000000A4910B50120087099
:1008F000642209A109A0FFF71DFE642206A10BA036
:10090000FFF718FEBDE81040642203A10CA0FFF71A
:1009100011BE0000040000204F4B000041542B4347
:100920004950434C4F53453D350D0A0041542B432C
:1009300049505345525645523D300D0A00000000C3
:1009400041542B4349504D55583D300D0A0000008D
:100950002DE9F0410446876D00F0B2FA054694F89F
:1009600035000026022806D08020606584F83460B7
:100970000120BDE8F0812068016821F016010160C6
:100980002068416921F080014161206C08B9A06CA8
:1009900020B12068016821F0080101602068016829
:1009A00021F0010101600CE000F08AFA401B0528EB
:1009B00007D920206065032084F8350084F834606E
:1009C000D7E720680068C007EED194F85C103F209C
:1009D0008840B860012084F8350084F83460002035
:1009E000C7E790F83510022903D080214165012026
:1009F0007047052180F835100068016821F0010179
:100A000001600020704700002DE9F84304464FF0D4
:100A10000009CDF8009063484FF41651A56D0068A9
:100A2000B0FBF1F72E6894F85C20082101FA02F07F
:100A300030420FD02068026852070BD5026822F0BE
:100A40000402026094F85C008140A960606D40F08F
:100A50000100606594F85C104FF0010808FA01F09D
:100A6000304208D021684969090604D5A860606D44
:100A700040F00200606594F85C1004208840304229
:100A800008D021680968890704D5A860606D40F026
:100A90000400606594F85C1010208840304218D043
:100AA00021680968090714D5A8602068016849030E
:100AB00004D50068000308D5A16C07E00168C905EA
:100AC00003D4016821F008010160216C09B12046BE
:100AD000884794F85C1020208840304231D021684B
:100AE0000968C9062DD5A86094F835000528206846
:100AF000016806D0490347D5006800031DD4616C26
:100B00001CE021F0160101602068416921F080019C
:100B10004161206C08B9A06C20B12068016821F007
:100B20000801016094F85C103F208840A86084F8B8
:100B3000358084F83490216D1FE0E16B09B12046C7
:100B40008847606D00282BD0606DC00714D0052049
:100B500084F835002068016821F0010101600098E7
:100B6000401C0090B84203D820680068C007F6D146
:100B700084F8358084F83490E16C002910D001B0FD
:100B80002046BDE8F04308470168C905D5D401688F
:100B900021F01001016084F8358084F83490CCE7AE
:100BA000BDE8F883240000202DE9F041044600F060
:100BB00087F905465CB1022084F83500002684F8E8
:100BC00034602068016821F0010101600DE001201E
:100BD000BDE8F08100F074F9401B052805D92020FC
:100BE0006065032084F83500F2E720680068C007DC
:100BF000F0D121680A6820480240D4E90103184373
:100C0000D4E903352B43184363691843A369184398
:100C1000E3691843236A18431043626A042A03D124
:100C2000D4E90B231A431043086020684069656AC1
:100C300020F0070128460D43012704280CD1A06AA3
:100C40000543E06A40B12046FFF782FB20B1402017
:100C5000606584F83570BAE7206845612046FFF783
:100C600063FB94F85C203F2191408160666584F8C5
:100C700035700020ACE700003F8010F02DE9F04116
:100C80000446866D90F83400002501280DD001201F
:100C900084F8340094F835700020012F07D084F8D0
:100CA000340002252846BDE8F0810220FBE7022738
:100CB00084F8357060652046FFF774FB94F85C108B
:100CC0003F208840B0602068016841F01601016053
:100CD000206C20B12068016841F0080101602068A3
:100CE000016841F001010160DCE7000070B50446D5
:100CF00000F0E6F80546601C02D004480078044481
:100D000000F0DEF8401BA042FAD370BD18000020AE
:100D10002DE9F84FDFF87C910022A9F1040B03279D
:100D20004FF00F0C09F1040AABF1040E01250B681A
:100D300095402B40AB426ED10C7904F00304012C9A
:100D400001D0022C15D18668540007FA04F826EA6F
:100D50000806D1F80C8008FA04F848EA0608C0F83A
:100D600008804468AC430D79C5F3001595402543D0
:100D700045600C79E443A40708D0C568540007FA1D
:100D800004F6B5438E68A6402E43C6600C7904F085
:100D90000304022C11D1D40800EB8406356A5407F1
:100DA000E40E0CFA04F825EA0805D1F8108008FAD8
:100DB00004F848EA0508C6F820800568540007FAD8
:100DC00004F6B5430E7906F00306A6402E430660EE
:100DD0004C6814F4403F57D02F4C256845F48045AB
:100DE0002560246822F0030504F4804400942B4C11
:100DF00005EB0408D8F808589407260F0CFA06F4F7
:100E0000A543274CA04201D1002415E0254CA04267
:100E100002D1012410E037E0234CA04201D102248A
:100E20000AE0224CA04201D1032405E0204CA0425C
:100E300001D1042400E00724B4402C43C8F808483A
:100E4000D9F800404D464E689C43F60200D51C433D
:100E50002C60DAF8004055464E689C43B60200D537
:100E60001C432C60DBF800405D464E689C43B60393
:100E700000D51C432C60DEF8004075464E689C434C
:100E8000F60300D51C432C60521C102AFFF44EAF11
:100E9000BDE8F88F083C0140443802400030014072
:100EA000000002400004024000080240000C024022
:100EB000001002400AB1816170470904FBE700009D
:100EC00001488068704700001800002002488168CF
:100ED0000278114481607047180000200B4810B55B
:100EE000016841F400710160016841F480610160B2
:100EF000016841F480710160032000F06FF80F2059
:100F000000F006F800F024F8002010BD003C02407C
:100F100070B50D4D04464FF47A712878B1FBF0F0AE
:100F20000A490968B1FBF0F000F000FB48B9102C49
:100F300007D200222146501E00F030F800206C60DD
:100F400070BD012070BD00001800002024000020AA
:100F50000A4808B5016841F480410160006800F466
:100F6000804000900548001F016841F080510160F9
:100F7000006800F08050009008BD00004438024036
:100F8000002809DB00F01F02012191404009800088
:100F900000F1E020C0F8001170470000F0B40E4BE3
:100FA0001B68C3F30223C3F10704042C00D90424F3
:100FB0001D1D072D01D2002300E0DB1E012606FACD
:100FC00004F56D1E0D409D409E40761E164045EA7C
:100FD0000601F0BC01F062BC0CED00E0064A00F036
:100FE000070110684FF6FF03184040EA012003494B
:100FF00008431060704700000CED00E00000FA05A7
:101000002DE9F0470D46040065D0DFF81491D9F8BA
:101010000000EFB200F00700A84207D289F8007084
:10102000D9F8000000F00700A84254D120683D4ED6
:10103000810712D5400703D5306840F4E050306096
:101040002078000703D5306840F460403060306895
:10105000A16820F0F000084330602078C0072DD050
:10106000304960680839012812D0022813D00328BB
:1010700011D00968890700292DDA316821F00301B0
:1010800001433160FFF71CFF804641F2883A0EE0D1
:1010900009688903EFE709688901ECE7FFF710FFAA
:1010A000A0EB0801514502D90320BDE8F087306864
:1010B000616800F00C00B0EB810FEFD1D9F800109F
:1010C000484601F00701A94207D90770006800F0FF
:1010D0000700A84201D00120E7E72078400705D5A6
:1010E0003068E16820F4E050084330602078000761
:1010F00006D53068216920F4604040EAC1003060C4
:1011000000F038F83168084AC1F30311515CC84057
:101110000649086006480068FFF7FAFE0020C4E7A9
:10112000003C024008380240C84A00082400002061
:101130001C0000200448054900680968044AC1F3FE
:101140008221515CC84070472400002008380240CA
:10115000D84A00080448054900680968044AC1F3F0
:101160004231515CC84070472400002008380240DA
:10117000D84A0008154810B5006810F00C01144852
:1011800013D0431004290FD008290ED10F4C241F6F
:10119000216801F03F022168490207D52068C0F3A9
:1011A0008810A0FB030106E0184610BD2168C1F3BA
:1011B0008811A1FB00010023FFF70AF82168C1F3A1
:1011C0000141491C4900B0FBF1F010BD0838024054
:1011D0000024F4002DE9F84F040075D02078DFF8E2
:1011E00038A3C007AAF1040548D00AF10400016839
:1011F000C1F38101012908D00068C0F381000228F1
:101200000AD1DAF80000400206D52868800335D5F7
:1012100060680028E1D031E06068B0F5803F10D010
:10122000B0F5A02F286810D020F4803028602868FE
:1012300020F4802028606068A0B1FFF741FE0646D8
:101240000CE0286840F48030F4E740F48020286007
:10125000F7E7FFF735FE801B642871D82868800304
:10126000F7D50BE0FFF72CFE064604E0FFF728FE5B
:10127000801B6428F1D828688003F7D42078DFF831
:101280009C9280074FF0000B3DD5A348001D0168DC
:1012900011F00C0F08D00068C0F3810002280AD1B9
:1012A000DAF80000400206D42868800715D5E06807
:1012B000012809D111E0E068B8B10120C9F80000A7
:1012C000FFF7FEFD064605E022E1FFF7F9FD801B72
:1012D0000228C2D828688007F7D52868216920F03D
:1012E000F80040EAC10028600DE0C9F800B0FFF73F
:1012F000E7FD064604E0FFF7E3FD801B02281FD848
:1013000028688007F7D42078000722D5824F8448C8
:101310006169703771B101210160FFF7D1FD0646A7
:1013200004E0FFF7CDFD801B022809D8386880074C
:10133000F7D50EE0C0F800B0FFF7C2FD064605E0A5
:1013400082E0FFF7BDFD801B02287DD8386880074A
:10135000F7D42078400765D56F484FF000083C303F
:101360000068C0000BD46C483C30016841F08051EB
:10137000016000684FF0010800F080500090694F54
:101380003868C0050FD4386840F480703860FFF7C3
:1013900097FD064604E0FFF793FD801B022853D813
:1013A0003868C005F7D55C4FA0686C3701280FD0AE
:1013B0000528386810D020F001003860386820F027
:1013C00004003860A068B0B1FFF77AFD06460EE071
:1013D000386840F00100F4E740F004003860F7E7B7
:1013E000FFF76EFD811B41F28830814263D8386877
:1013F0008007F5D50DE0FFF763FD064606E0FFF731
:101400005FFD811B41F28830814254D838688007E3
:10141000F5D4B8F1000F05D03F483C30016821F009
:1014200080510160A069B8B33B49091D0968C1F347
:101430008101022946D00228584606D0C9F860002A
:10144000FFF73EFD044639E035E04F46C9F860003D
:10145000FFF736FD064604E0FFF732FD801B022849
:1014600029D828688001F7D4D4E907010843A16A84
:101470002D4A490802EB0141626A41EA82110843A0
:1014800094F82C1040EA0161CAF800100120386677
:10149000FFF716FD044605E03CE0FFF711FD001BD9
:1014A000022808D828688001F7D533E0FFF708FD47
:1014B000001B022802D90320BDE8F88F28688001AC
:1014C000F4D427E00128F7D0DAF80000E26900F44C
:1014D000800191421CD1226A00F03F01914217D154
:1014E00047F6C071626A0140B1EB821F10D1A26A57
:1014F0004FF0FF3300F4403103EB5202B1EB024FE7
:1015000006D194F82C1000F07060B0EB016F01D0A0
:101510000120D1E70020CFE7043802400000474215
:10152000800E4742007000400000FFFF10B5401ED3
:10153000B0F1807F01D3012010BD4FF0E024606145
:101540000F21601701F0AAF90020A0610720206197
:10155000002010BD704710B504460068406994F83B
:101560004110C0F3C010212911D180B1206814307E
:1015700050E8001F21F0800140E80012002AF5D158
:10158000A06B08B1FFF7E4F9204600F0DFFE206809
:10159000406994F84210C0F38010222911D180B123
:1015A0002068143050E8001F21F0400140E800128C
:1015B000002AF5D1E06B08B1FFF7CAF9204600F028
:1015C0009EFE002010BD7047F8B50168044608680B
:1015D000CA684B6910F00F0F4FF0000559D003F0A7
:1015E000010602F49077374365D0C10705D0D105D5
:1015F00003D5616C41F001016164410705D5D9074C
:1016000003D0616C41F002016164810705D5D907FF
:1016100003D0616C41F004016164010707D502F059
:101620002001314303D0616C41F008016164616CB9
:1016300000293AD0800604D5900602D5204600F055
:1016400093FE20684069616CC0F38010090700D4E4
:1016500060B3204600F053FE20684069400621D563
:101660002068143050E8001F21F0400140E80012CB
:10167000002AF5D1E06BA8B16E490165E06BFFF778
:10168000B0F9002811D0E06B016D01B0BDE8F04069
:10169000084783060FD593060DD52046BDE8F840D0
:1016A00000F062BE2046FFF78EFFF8BD2046FFF730
:1016B0008AFF6564F8BD266B2023012E7DD1C60606
:1016C0007BD5D60679D508684868009048694FF000
:1016D0000206400641D5E16B086840680004000C32
:1016E000E8D0A28D8242E5D9E085C869B0F5807F57
:1016F0002DD020680C3050E8001F21F4807140E8A4
:101700000012002AF5D12068143050E8001F21F0A3
:10171000010140E80012002AF5D12068143050E899
:10172000001F21F0400140E80012002AF5D184F8A2
:101730004230256320680C3050E8001F21F0100172
:1017400040E80012002AF5D1E06BFFF701F966636B
:10175000A08DE18D401A81B22AE0A08DE18D401A62
:1017600081B2E08D0028A5D00029A3D020680C30DC
:1017700050E8002F22F4907240E80027002FF5D1A6
:101780002068143050E8002F22F0010240E80027C2
:10179000002FF5D184F84230256320680C3050E8E2
:1017A000002F22F0100240E80023002BF5D16663E1
:1017B0002046FFF7CFFEF8BDFFE705062BD515063F
:1017C00029D594F841002128F5D1A068B0F5805FB3
:1017D00001D12069B0B1206A411C216221680078E2
:1017E0004860E08C401E0004000CE084E3D12068D7
:1017F000C16821F08001C1602068C16841F04001EA
:10180000C160D8E7206A0088C0F308004860206AF9
:10181000801C2062E5E74006CDD55006CBD5CA68CE
:10182000204622F04002CA6084F8413000F012F9EC
:10183000C1E700000122000870B5040004D094F84C
:101840004100002510B106E0012070BD84F8405031
:10185000204600F023F8242084F841002068C16865
:1018600021F40051C160204600F0E0FD20680169CC
:1018700021F4904101612068416921F02A01416110
:101880002068C16841F40051C1606564202084F87B
:10189000410084F842006563002070BDF0B587B058
:1018A000064614216846FEF7CBFCDFF8D0C030684E
:1018B00000253349022203230727324C60453DD1DE
:1018C0002F481430D0F800C04CF0100CC0F800C005
:1018D000006800F010000590086840F00100086002
:1018E0000868694600F00100059058028DE825005F
:1018F000CDE903372046FFF70BFA244C224820603D
:101900004FF00060C4E901054014C4E9035065616B
:10191000A561E561256220466562FFF745F908B1DA
:10192000FEF700FEF463002211462520A663FFF7B0
:1019300035FB2520FFF724FB07B0F0BD144EB04265
:10194000FAD10F481030066846F400360660006889
:1019500000F400300590086840F001000860086855
:10196000694600F0010005900C208DE82500CDE9C6
:1019700003372046FFF7CCF9DEE7000000100140F6
:101980003038024000000240406402403C05002024
:101990000044004090F84230202B01D002207047D4
:1019A00021B11AB10023036300F0C6BD01207047C6
:1019B000704770472DE9F843044690F841001F46F0
:1019C00015460E46202802D00220BDE8F8838EB1CD
:1019D00085B100206064212084F84100FFF770FA8F
:1019E000A5848146E584A0684FF02008B0F5805FAB
:1019F00002D003E00120E8E7206910B13546002657
:101A00000EE000250CE08021204600F0DFFDA0B9AB
:101A1000BDB115F8010B21684860E08C401EE084E0
:101A2000E08C4B464FF0000200970028EBD14FF0BE
:101A30004001204600F0CAFD40B184F841800320F7
:101A4000C3E736F8020BC0F30800E4E784F84180EE
:101A50000020BAE77047FEE7094808B5016841F47D
:101A6000800101600068002200F4800000901146AF
:101A70003A20FFF793FABDE808403A20FFF780BA12
:101A8000303802402DE9F04186B014216846FEF757
:101A9000D7FB2F480024016841F0800101600168F4
:101AA00001F080010591016841F0040101600168C5
:101AB00001F004010591016841F001010160016834
:101AC00001F001010591016841F002010160006827
:101AD000204E00F002000590002283213046FFF7DF
:101AE000E9F91D4F0022B0213846FFF7E3F9DFF88E
:101AF0006C80002249214046FFF7DCF983200090EA
:101B00000125CDE90154694630460394FFF700F9F9
:101B100010200090CDE90154694638460394FFF740
:101B2000F7F8A020CDE900050220CDE90240694682
:101B30003846FFF7EDF849200090CDE90154694699
:101B400040460394FFF7E4F806B0BDE8F0810000DA
:101B50003038024000080240000002400004024009
:101B600010B5114C0F480C2120604FF4E13060603B
:101B70000020A060E060C4E90401A061E0612046AB
:101B8000FFF75AFE08B1FEF7CDFC2068C16841F0AE
:101B90001001C160BDE810404FF480720349024853
:101BA000FFF7F8BE00100140AC0400209C050020A7
:101BB0000C4810B50A4901604FF4E1314160002141
:101BC00081600822C160C0E904128161C161FFF730
:101BD00033FE002803D0BDE81040FEF7A3BC10BDC3
:101BE00000440040F4040020FEE7FEE730B400218A
:101BF000084B0A46002003EBC004401CC0B26254EC
:101C00008028F8D3491CC9B20829F3D330BC00F0AE
:101C10009FB800002C00002030B5CC0801F007036D
:101C200001259D40EBB2064D05EBC005C808285CB8
:101C30000AB1184302E063EA0000C043285530BDF2
:101C40002C00002010B5414C002240212046FFF717
:101C500031F9C820FFF74AF8012240212046FFF75A
:101C600029F90021AE2000F0F5F80021084600F027
:101C7000F1F80021102000F0EDF80021402000F0E4
:101C8000E9F80021812000F0E5F80021CF2000F0E4
:101C9000E1F80021A12000F0DDF80021C82000F0CB
:101CA000D9F80021A62000F0D5F80021A82000F0E6
:101CB000D1F800213F2000F0CDF80021D32000F022
:101CC000C9F80021084600F0C5F80021D52000F031
:101CD000C1F80021802000F0BDF80021D92000F0DB
:101CE000B9F80021F12000F0B5F80021DA2000F069
:101CF000B1F80021122000F0ADF80021DB2000F047
:101D0000A9F80021402000F0A5F80021202000F0D3
:101D1000A1F80021022000F09DF800218D2000F0A4
:101D200099F80021142000F095F80021A42000F07B
:101D300091F80021A62000F08DF8FFF757FF002151
:101D4000BDE81040AF2000F085B80000000402405C
:101D500070B5104E002505F1B000C0B2002100F0B2
:101D600079F80021084600F075F80021102000F0F5
:101D700071F8002406EBC4000121405D00F06AF810
:101D8000641CE4B2802CF5D36D1CEDB2082DE2D3B7
:101D900070BD00002C0000202DE9FC4F8146009012
:101DA0001E46924688468B46580700D0012000EB1D
:101DB000D60010FB06F00025019040E0102E0ED05A
:101DC000182E10D0202E15D0402E3BD11F4901EBEC
:101DD0004A200027445DE00711D00B9A12E01C490D
:101DE00001EB4A10F5E719490AEBCA00C83901EBC3
:101DF000C000EEE71549803901EBCA10E9E70B98FE
:101E000010B3002241464846FFF706FF7F1C6408D6
:101E100008F10100FFB200F0FF08082FDBD309F141
:101E20000100009900F0FF09A9EB0100B04204D1C4
:101E30000BF10800894600F0FF0BD8466D1C019895
:101E40008542BBD3BDE8FC8F0122DBE7C048000818
:101E5000184600082DE9F0411A4F054609B1012244
:101E600000E0002280213846FFF724F8164E0022B9
:101E700010213046FFF71EF80024002220213046B2
:101E8000FFF718F8280601D5012200E00022802182
:101E90003046FFF70FF8012220213046FFF70AF8FD
:101EA0006806641C050EE4B2082CE6D3012210215A
:101EB0003046FEF7FFFF3846BDE8F04101228021A1
:101EC000FEF7F8BF000802400000024038B5FFF7F7
:101ED0003FFF4FF4FA70FEF709FFFFF787FE00227D
:101EE00001241023114610460094FFF755FF1023DC
:101EF0000122002112200094FFF74EFF102302223E
:101F0000002124200094FFF747FF10230322002123
:101F100036200094FFF740FF1023042200214820C0
:101F20000094FFF739FF1023052200215A20009466
:101F3000FFF732FF10230622122114200094FFF72E
:101F40002BFF10230722122126200094FFF724FFE5
:101F500010230822122138200094FFF71DFF1023C0
:101F6000092212214A200094FFF716FFBDE83840ED
:101F7000FFF7EEBE70477047FEF7A8BF30B593B0CD
:101F800030216846FEF75CF914210CA8FEF758F9D9
:101F90001C480025016841F080510160006800F094
:101FA000805011901848016841F440410160006878
:101FB000022400F440401190012000904FF4A02032
:101FC00001906005CDE9064008AA0420642182E85A
:101FD00013000B906846FFF7FDF808B172B6FEE7F4
:101FE0000CA90F2081E831004FF48050CDE90F0596
:101FF00003210CA8FFF704F8002801D072B6FEE711
:1020000013B030BD40380240007000400248016803
:1020100041F470010160704788ED00E03EB5044670
:102020005EA15F48FEF717F910F8091C10F8082C9C
:10203000303901EB81016FF0270303EB41011144BB
:10204000182291FBF2F302FB1311217110F8061C08
:1020500010F8052C303901EB81016FF02F0303EBF1
:1020600041010A443C2192FBF1F501FB152262710A
:1020700010F8032C10F8025C303A02EB820203EBFA
:1020800042022A4492FBF1F501FB1521A17110F8DF
:102090000E1C10F80B2C303901EB4105C5EBC111BA
:1020A00002EBC10210F80D1C642511FB05F510F8B8
:1020B0000C1C01EB810105EB41011144A1F5A0517C
:1020C000D039218010F8141C10F8150C303800EBB2
:1020D000800003EB40000844E07032A13048FEF776
:1020E000BAF808B101204BE02FA12D48FEF7B3F854
:1020F00008B1022044E02DA12948FEF7ACF808B150
:1021000003203DE02AA12648FEF7A5F808B10420E7
:1021100036E028A12248FEF79EF808B105202FE0FE
:1021200025A11F48FEF797F808B1062028E023A153
:102130001B48FEF790F808B1072021E020A11848BD
:10214000FEF789F808B108201AE01EA11448FEF72E
:1021500082F808B1092013E01BA11148FEF77BF8B3
:1021600008B10A200CE019A10D48FEF774F808B177
:102170000B2005E016A10A48FEF76DF808B10C2007
:10218000A0702079A27961798DE80700E378A278C0
:10219000218810A000F05EFB3EBD0000474D5400BA
:1021A0009C0500204A616E00466562004D61720028
:1021B000417072004D6179004A756E004A756C007D
:1021C00041756700536570004F6374004E6F760071
:1021D0004465630074696D653D2564E5B9B42025E7
:1021E00064E69C88202564E697A5202564E697B6DA
:1021F000202564E58886202564E7A7920D0A000063
:1022000010B5806B0021C185C184FFF7DCF910BDDA
:1022100070B5846B2068406994F84110C0F3C01019
:102220000025212904D118B1E584204600F08EF85C
:102230002068406994F84210C0F38010222904D12C
:1022400018B1E585204600F05AF8606C40F01000A7
:1022500060642046FFF7B7F970BD10B50146806B8A
:10226000096809684FF00003C9052ED4C3850168C9
:102270000C3151E8002F22F4807241E80024002C38
:10228000F5D10168143151E8002F22F0010241E834
:102290000024002CF5D10168143151E8002F22F000
:1022A000400241E80024002CF5D1202180F84210A2
:1022B000016B012909D101680C3151E8002F22F08E
:1022C000100241E80024002CF5D14363016B012981
:1022D00002D0FFF76DFB10BD818DFFF73BF910BDFC
:1022E00010B5806B01214163016B012902D0FFF71A
:1022F00060FB10BD818D4908FFF72CF910BD016806
:102300000C3151E8002F22F4907241E80023002B99
:10231000F5D10168143151E8002F22F0010241E8A3
:102320000023002BF5D1016B012909D101680C3183
:1023300051E8002F22F0100241E80023002BF5D1D4
:10234000202180F8421000210163704701680C31A0
:1023500051E8002F22F0C00241E80023002BF5D104
:10236000202180F84110704708B590F842102229CA
:1023700001D0022008BD81684FF48053994201D1F9
:10238000026922B1826A99421BD049B10AE002680F
:10239000816A5268C2F308020A80816A891C08E0D7
:1023A000016971B10168496801F07F011170816AAA
:1023B000491C8162C18D491E0904090CC18503D0E5
:1023C0001BE001684968F1E70168CA6822F0200251
:1023D000CA600168CA6822F48072CA6001684A69EA
:1023E00022F001024A61202180F84210002141635D
:1023F000026B012A03D0FFF7DBFA002008BD01635E
:1024000001680C3151E8002F22F0100241E800234E
:10241000002BF5D101680A68D20602D50A6849681E
:102420000091818DFFF796F8E7E7000070B504464C
:1024300000680169E26821F4405111430161A1681B
:102440002069E26901436069104301432068C26862
:1024500049F20C639A430A43C26020684169A26949
:1024600021F440711143416131492068884202D012
:102470003049884202D1FEF76DFE01E0FEF75AFEB8
:10248000E2690023192164253226B2F5004F626803
:1024900028D0A0FB0101930F9200FDF799FE0146A1
:1024A000B0FBF5F06FF01802504301EB800006EB33
:1024B0000010B0FBF5F000F0F002B1FBF5F002EB1C
:1024C0000012B1FBF5F06FF01803584301EB8000E8
:1024D00006EB0010B0FBF5F000F00F00216810448F
:1024E000886070BDA0FB010192185B41FDF770FE92
:1024F0000146B0FBF5F00201B1FBF5F06FF01803F7
:10250000584301EB800006EBC000B0FBF5F000F093
:10251000F80002EB4002B1FBF5F0584301EB8000FC
:1025200006EBC000B0FBF5F000F00700D6E70000B6
:10253000001001400014014037B582B01346039AE1
:1025400082620446838500206064222184F8421060
:10255000E56B1B49E963E56B1A492964E56B1A4988
:10256000E964E16B08652168E06B091DFEF786FBF5
:102570002068016840680090206948B120680C30EC
:1025800050E8001F41F4807140E80012002AF5D1A4
:102590002068143050E8001F41F0010140E80012AB
:1025A000002AF5D12068143050E8001F41F04001A6
:1025B00040E80012002AF5D105B0002030BD00002F
:1025C0005B220008E1220008112200082DE9F843EF
:1025D0001F4690460D460446089E23E0701C21D0FD
:1025E000FEF76EFCC01BB0421AD8CEB12068C1689D
:1025F000490717D5802D15D0402D13D00168C94348
:1026000009070FD401680025406800902046FFF7B5
:1026100076FE0820606484F840500120BDE8F8830D
:102620000320FBE72068006835EA000004D00020A2
:102630004045D3D00020F1E70120F9E738B516482E
:1026400000680168C1F3001101B30168406800909F
:102650001148FEF780FF114800684068104C404266
:102660000125207065700FA11048FDF7F4FD00B141
:10267000A5704FF6FF7322780C490D48FFF79AF9C1
:102680004FF4806209490448FFF784F9BDE83840F7
:102690000148FEF799BF0000AC0400203C05002073
:1026A000000000202B495044000000009C05002041
:1026B000F4040020FEE7000070B504461BA11D488D
:1026C000FDF7C9FD05461CA1C01DFDF7C4FD002195
:1026D0000170EA1D19A1204600F0CCF818A1154898
:1026E000FDF7B9FD10F80E1F6FF02F022D2912D043
:1026F0003039407801EB810102EB41010844E0757B
:10270000214612A000F0A6F894F91710BDE8704019
:1027100011A000F09FB881784078303800EB80003D
:1027200002EB400008444042E9E700007465787419
:10273000000000009C05002022000000257300001E
:1027400074656D706572617475726500636C696D36
:1027500061743A25730D0A0074656D706572617459
:102760007572653A2564C2B0430D0A0000B595B094
:102770000B46024607A1684600F07CF840F2DC52A6
:102780000BA16846FDF7D6FE002800D0012015B049
:1027900000BD000041542B43574A41505F435552FE
:1027A0003D222573222C222573220D0A00000000F1
:1027B0004F4B000070B506464FF496720DA10EA067
:1027C000FDF7B8FE002598B10EA0FDF7ADFE04465A
:1027D0000EA1C01DFDF73FFD0570E21D0CA13046A6
:1027E00000F048F8BDE870400A490BA000F032B88C
:1027F000357070BD4F4B000041542B434946535236
:102800000D0A00005354414950000000220000000E
:1028100025730000B409002025730D0A0000000094
:1028200010B5642205A106A0FDF784FE08A0FDF7FF
:102830007BFE40783038C0B210BD00004F4B000026
:1028400041542B4349505354415455530D0A0000F1
:102850003A0000000FB4054B10B503A9044A0298D2
:1028600000F03CF810BC5DF814FB0000A12A000841
:10287000280000200FB4084B10B504A902AA039841
:1028800000F02CF8044602A9002000F003F92046CD
:1028900010BC5DF814FB0000952A00080907090E1A
:1028A000002804DB00F1E02080F80014704700F0FD
:1028B0000F0000F1E02080F8141D704702E008C806
:1028C000121F08C1002AFAD170477047002001E0AA
:1028D00001C1121F002AFBD1704700002DE9FF4FF4
:1028E0008BB09A460F460546002606E025280BD0F9
:1028F00052460D9990476D1C761C28780028F5D11A
:102900000FB03046BDE8F08F0024A0460122604998
:1029100000E0044315F8013F203B02FA03F00842AF
:10292000F7D128782E2817D115F8010F44F00404A8
:102930002A280ED06FF02F022878A0F13001092943
:102940000AD808EB880102EB410100EB01086D1C7D
:10295000F2E757F8048B6D1C287869283ED006DC16
:102960000028CDD063280BD0642804D136E073282A
:1029700010D075284BD052460D999047761C85E0B3
:1029800017F8040B8DF8000000208DF80100E946CF
:10299000012003E057F8049B4FF0FF3061074FF030
:1029A000000401D40AE0641C44450DDA8442FADBD9
:1029B00019F804100029F6D106E0641C8442FCDBFF
:1029C00019F804100029F8D1264404E019F8010B85
:1029D00052460D999047641EF8D257E001CF4FF050
:1029E0000A0B002802DA40422D2102E0210504D51D
:1029F0002B218DF82410012103E0E10705D02021CF
:102A0000F7E70DF1200908910CE00021F9E701CF6B
:102A10004FF00A0BF9E75946FDF736FC01F1300299
:102A200009F8012D0028F6D1ADEB090000F1200BCB
:102A3000600701D44FF00108D84502DDA8EB0B0078
:102A400000E000208046002406E009A85246005D10
:102A50000D999047641C761C08988442F5DB04E0CD
:102A6000302052460D999047761CB8F10001A8F12C
:102A70000108F5DC05E019F8010B52460D99904765
:102A8000761CBBF10001ABF1010BF4DC6D1C34E7EB
:102A9000092801000A68531C0B6010707047000081
:102AA00004490A685206FCD5024AC1B2121D1160DF
:102AB0007047000000440040FEF710FAFFF75EFA8E
:102AC000FEF7E0FFFEF7C8FFFFF74AF8FFF770F8E0
:102AD000404E012211463046FEF7ECF93E4D0122F0
:102AE00002212846FEF7E6F9012211462846FEF7A4
:102AF000E1F9012208213046FEF7DCF9FFF7A2F8E0
:102B0000FFF7E4F9002201213046FEF7D3F9002255
:102B100002212846FEF7CEF9002201212846FEF7C1
:102B2000C9F9002208213046FEF7C4F92BA0FFF7AF
:102B300091FEFDF7CBFDFDF74BFC2D4C20780028D6
:102B4000FCD02CA12C48FDF786FB4078302806D01D
:102B500031281AD0332830D0342833D130E0002245
:102B600001213046FEF7A6F9002202212846FEF791
:102B7000A1F9002201212846FEF79CF90022082134
:102B80003046FEF797F91DA014E0012211463046A9
:102B9000FEF790F9012202212846FEF78BF9012267
:102BA00011462846FEF786F9012208213046FEF735
:102BB00081F918A0FFF74EFE04E0FDF70FFE01E0DB
:102BC000FDF790FD00202070184801780A48FDF7B5
:102BD00037FBB3E70004024000080240E5889DE5AA
:102BE000A78BE58C96E4B8AD2E2E2E0D0A000000C2
:102BF000020000203A0000009C0500200A66725383
:102C0000544D33324C656473204F66662121210D8B
:102C10000A0000000A667253544D33324C656473E7
:102C2000204F6E2121210D0A00000000000000202D
:102C30000000000000000000002F0000000007005E
:102C4000070000147F147F1400242A7F2A120062D8
:102C50006408132300364955225000000503000084
:102C600000001C224100000041221C000014083E0C
:102C700008140008083E0808000000A060000008D2
:102C80000808080800006060000000201008040226
:102C9000003E5149453E0000427F400000426151E4
:102CA0004946002141454B31001814127F1000277E
:102CB00045454539003C4A49493000017109050341
:102CC00000364949493600064949291E0000363672
:102CD00000000000563600000008142241000014D5
:102CE00014141414000041221408000201510906B2
:102CF00000324959513E007C1211127C007F494933
:102D00004936003E41414122007F4141221C007F63
:102D100049494941007F09090901003E4149497A71
:102D2000007F0808087F0000417F410000204041EB
:102D30003F01007F08142241007F40404040007F57
:102D4000020C027F007F0408107F003E4141413E9B
:102D5000007F09090906003E4151215E007F0919E3
:102D600029460046494949310001017F0101003FE0
:102D70004040403F001F2040201F003F4038403F60
:102D800000631408146300070870080700615149C4
:102D9000454300007F41410000552A552A55000057
:102DA00041417F00000402010204004040404040D5
:102DB000000001020400002054545478007F48446D
:102DC000443800384444442000384444487F0038A4
:102DD0005454541800087E0901020018A4A4A47CCD
:102DE000007F080404780000447D40000040808497
:102DF0007D00007F102844000000417F4000007CDF
:102E000004180478007C08040478003844444438EA
:102E100000FC242424180018242418FC007C080436
:102E2000040800485454542000043F444020003C0F
:102E30004040207C001C2040201C003C4030403C96
:102E4000004428102844001CA0A0A07C0044645426
:102E50004C4414141414141400000000000000006A
:102E6000000000000000FC00000000000200000064
:102E7000000C020C020000000000000090D0BCD04A
:102E8000BC900003000300001824FE448C000302E1
:102E9000070201001824D8B04C8000030001020191
:102EA000C038E438E0000102020102020806000016
:102EB0000000000000000000000000F80402000014
:102EC00000010204000204F80000000402010000F6
:102ED0009060F86090000000010000002020FC20BD
:102EE00020000000010000000000000000000806B3
:102EF0000000000020202020200000000000000032
:102F00000000000000000002000000000080601CC3
:102F10000200040300000000F8040404F8000102A9
:102F2000020201000008FC00000000020302000091
:102F30001884442418000302020202000804242416
:102F4000D80001020202010040B088FC80000000AD
:102F5000000302003C242424C400010202020100F8
:102F6000F824242CC0000102020201000C04E41C1D
:102F70000400000003000000D8242424D80001022B
:102F80000202010038444444F80000030202010038
:102F900000001000000000000200000000002000FF
:102FA000000000000600000000205088040200001D
:102FB000000001029090909090000000000000003E
:102FC0000002048850200002010000001804C424FC
:102FD0001800000002000000F804E494F800010268
:102FE0000202020000E09CF08000020300000302E5
:102FF00004FC2424D800020302020100F8040404A3
:103000000C0001020202010004FC0404F8000203A7
:103010000202010004FC24740C00020302020300FB
:1030200004FC24740C00020302000000F0080444B5
:10303000CC4000010202010004FC2020FC04020339
:10304000000003020404FC04040002020302020064
:10305000000404FC040406040403000004FC24D05F
:103060000C0402030200030204FC0400000002033B
:1030700002020203FC3CC03CFC000300030003000E
:1030800004FC30C4FC04020302000300F80404043E
:10309000F80001020202010004FC242418000203CB
:1030A00002000000F8848404F80001020207050011
:1030B00004FC246498000203020003021824244440
:1030C0008C000302020201000C04FC040C0000024C
:1030D0000302000004FC0000FC04000102020100E5
:1030E000047C80E01C040000030000001CE03CE0C5
:1030F0001C00000300030000049C609C0400020309
:1031000000030200041CE01C040000020302000093
:103110000C84641C04000203020203000000FE028F
:103120000200000007040400000E30C00000000090
:1031300000010200000202FE00000004040700007B
:103140000004020400000000000000000000000075
:10315000000008080808080800000200000000003D
:10316000000000000040A0A0C00000010202030215
:1031700004FC2020C00000030202010000C0202047
:10318000600000010202020000C02024FC000001D7
:103190000202030200C0A0A0C0000001020202005F
:1031A0000020F82424040002030202000040A0A032
:1031B000602000070A0A0A0404FC2020C000020361
:1031C000020003020020E4000000000203020000ED
:1031D000000020E4000008080807000004FC80E06C
:1031E00020200203020003020404FC00000002028B
:1031F00003020200E020E020C000030003000300FF
:1032000020E02020C00002030200030200C02020B2
:10321000C00000010202010020E02020C000080FD1
:103220000A02010000C02020E0000001020A0F088D
:1032300020E0402020000203020000000060A0A067
:1032400020000002020203000020F820000000001D
:103250000102020020E00020E0000001020203025F
:1032600020E0208060200000030100006080E080FA
:103270006000000300030000206080602000020363
:103280000003020020E02080602008080701000001
:103290000020A0602000000203020200000020DEE7
:1032A0000200000000070400000000FF0000000012
:1032B000000F00000002DE200000000407000000F4
:1032C00002010204040200000000000000000000EF
:1032D000000000000000000000000000000000F8F6
:1032E00000000000000000333000000000100C0659
:1032F000100C0600000000000000000040C07840F4
:10330000C0784000043F04043F040400007088FCBF
:1033100008300000001820FF211E0000F008F00017
:10332000E018000000211C031E211E0000F0088888
:10333000700000001E2123241927211010160E00F2
:10334000000000000000000000000000000000E09D
:1033500018040200000000071820400000020418B2
:10336000E00000000040201807000000404080F00E
:10337000804040000202010F01020200000000F044
:10338000000000000101011F010101000000000018
:103390000000000080B0700000000000000000008D
:1033A0000000000000010101010101010000000016
:1033B00000000000003030000000000000000000AD
:1033C00080601804006018060100000000E010088A
:1033D0000810E000000F102020100F00001010F85F
:1033E000000000000020203F20200000007008089E
:1033F000088870000030282422213000003008881E
:10340000884830000018202020110E000000C02045
:1034100010F8000000070424243F240000F8088866
:10342000880808000019212020110E0000E01088F3
:1034300088180000000F112020110E000038080825
:10344000C83808000000003F000000000070880835
:1034500008887000001C222121221C0000E01008B6
:103460000810E0000000312222110F00000000C00F
:10347000C0000000000000303000000000000080AC
:10348000000000000000806000000000000080409C
:1034900020100800000102040810200040404040B5
:1034A0004040400004040404040404000008102008
:1034B000408000000020100804020100007048084D
:1034C0000808F0000000003036010000C030C828B5
:1034D000E810E0000718272423140B000000C03870
:1034E000E0000000203C23020227382008F88888EA
:1034F00088700000203F202020110E00C0300808F6
:1035000008083800071820202010080008F80808CC
:103510000810E000203F202020100F0008F88888C5
:10352000E8081000203F20202320180008F8888891
:10353000E8081000203F200003000000C030080809
:103540000838000007182020221E020008F8080092
:103550000008F808203F210101213F20000808F859
:10356000080800000020203F20200000000008087C
:10357000F8080800C08080807F00000008F888C03C
:1035800028180800203F20012638200008F80800ED
:1035900000000000203F20202020300008F8F80024
:1035A000F8F80800203F003F003F200008F830C036
:1035B0000008F808203F200007183F00E010080826
:1035C0000810E0000F10202020100F0008F8080855
:1035D0000808F000203F210101010000E010080868
:1035E0000810E0000F18242438504F0008F888888D
:1035F00088887000203F2000030C3020007088086D
:10360000080838000038202121221C00180808F87A
:10361000080818000000203F2000000008F80800FB
:103620000008F808001F202020201F0008788800CC
:1036300000C83808000007380E010000F80800F83C
:103640000008F800033C0700073C030008186880E6
:103650008068180820302C03032C30200838C8005C
:10366000C83808000000203F2000000010080808AB
:10367000C83808002038262120201800000000FE4D
:10368000020202000000007F40404000000C30C0F9
:1036900000000000000000010638C0000002020225
:1036A000FE000000004040407F00000000000402D7
:1036B0000202040000000000000000000000000002
:1036C00000000000808080808080808000020204F2
:1036D00000000000000000000000000000008080EA
:1036E000808000000019242222223F2008F8008058
:1036F00080000000003F112020110E00000000801B
:1037000080800000000E11202020110000000080A9
:103710008088F800000E112020103F2000008080DB
:1037200080800000001F222222221300008080F0EF
:10373000888888180020203F20200000000080801A
:1037400080808000006B94949493600008F800805F
:1037500080800000203F210000203F2000809898BA
:10376000000000000020203F20200000000000801A
:103770009898000000C08080807F000008F800005A
:1037800080808000203F24022D302000000808F8AF
:10379000000000000020203F20200000808080806A
:1037A00080808000203F20003F20003F80800080FC
:1037B00080800000203F210000203F20000080800A
:1037C00080800000001F202020201F0080800080BB
:1037D0008000000080FFA12020110E00000000806A
:1037E00080808000000E112020A0FF80808080005B
:1037F0008080800020203F21200001000000808088
:10380000808080000033242424241900008080E07C
:10381000808000000000001F202000008080000049
:1038200000808000001F202020103F20808080002A
:103830000080808000010E3008060100808000803A
:10384000008080800F300C030C300F00008080005F
:10385000808080000020312E0E312000808080008A
:103860000080808080818E7018060100008080803A
:10387000808080000021302C2221300000000000D8
:10388000807C020200000000003F40400000000079
:10389000FF00000000000000FF0000000002027CAA
:1038A000800000000040403F0000000000060101D1
:1038B00002020404000000000000000000000000FC
:1038C00000000000000000000000000000000000F8
:1038D00000000000000000000000000000000000E8
:1038E0000000000000F0F0F0000000000000000008
:1038F00000017F010000000000000000001C1C1CF3
:103900000000000000008060301C8C60301C0C0047
:1039100000000000000000000000000000000000A7
:103920000000000000000000000000E000000000B7
:1039300000E000000086E69F86868686E69F860079
:1039400000011F01010101011F010100000080C0F1
:103950006020F820E0C00000000003070C18FF7092
:10396000E18100000000070F10107F100F0700001A
:103970008060206080000000E02000000F302030D8
:103980009F70DC371030C0000000100E03000718D5
:10399000101807000000C02020E0C0000000000058
:1039A00080E01F38E88703C43C040000070F1810AC
:1039B000100B070D1010080000808C4C3800000020
:1039C00000000000000000000000000000000000F7
:1039D00000000000000000000000000000000000E7
:1039E000000080E0300804000000000000FEFF013D
:1039F00000000000000000000000030F182040003D
:103A000000040830E080000000000000000000001A
:103A100001FFFE0000000000004020180F0300001E
:103A200000000000000000000000C00000000000D6
:103A3000004266663C18FF183C66664200000000C3
:103A400000000300000000000000000000008000F3
:103A500000000000001010101010FF1010101010C7
:103A60000000000000000300000000000000000053
:103A70000000000000000000000000000000000046
:103A80000000000000808C4C3800000000000000A6
:103A900000000000000000000000000000101010F6
:103AA00010101010101010000000000000000000A6
:103AB0000000000000000000000000000000000006
:103AC00000000000000000000000000000001C1CBE
:103AD0001C000000000000000000000000000000CA
:103AE000E0380C000000000080701C0300000000A3
:103AF0000060380E0100000000000000000080C0DF
:103B000060202060C080000000FEFF010000000077
:103B100001FFFE000001070E181010180E0701002B
:103B20000000808080C0E000000000000000000075
:103B300000FFFF000000000000001010101F1F1009
:103B4000101000000080402020202060C080000075
:103B500000030300804020381F070000001C1A19D2
:103B600018181818181F00000080C020202060C0FE
:103B700080000000000303001010182FE7800000F1
:103B800000070F10101010180F07000000000000B1
:103B90000000C0E0F000000000C0B088868180FF17
:103BA000FF808000000000000010101F1F10100098
:103BB0000000E060606060606060000000003F1036
:103BC00008080818F0E0000000070B101010101C87
:103BD0000F030000000080C040202020E0C0000053
:103BE00000FCFF211008080818F0E0000001070C95
:103BF00018101010080F03000000C0E06060606043
:103C000060E06000000003000000E0180700000012
:103C100000000000001F1F00000000000080C060C6
:103C20002020202060C080000087EF2C1818303042
:103C300068CF830000070F0810101010180F07003E
:103C40000000C0C020202020C0800000001F3F6076
:103C50004040402010FFFE0000000C1C1010100817
:103C60000F03000000000000000000000000000042
:103C700000000000000E0E0E00000000000000001A
:103C8000001C1C1C000000000000000000000000E0
:103C90000000000000000000000C0C00000000000C
:103CA0000000000000583800000000000000000084
:103CB0000000008040201000000010284482010015
:103CC00000000000000000000000010204081000D5
:103CD0000000000000000000000000000084848458
:103CE0008484848484848400000000000000000038
:103CF00000000000000010204080000000000000D4
:103D0000000000000000018244281000000010089C
:103D1000040201000000000000C02020101010105C
:103D200030E0C0000003030000F010080C0703009F
:103D3000000000001C1C1C0000000000000000C06F
:103D4000406020202040C00000FCFF01F00E03C1B5
:103D5000FE03807F0001070E0811111011090402F3
:103D60000000000080E0E000000000000000807C17
:103D70004340477FF880000010181F10000000002B
:103D8000131F1C1020E0E02020202060C0800000D5
:103D900000FFFF10101010182FE78000101F1F10D9
:103DA00010101010180F0700000080C040202020C5
:103DB0002060E00000FCFF010000000000000100A6
:103DC0000001070E181010100804030020E0E02086
:103DD00020202040C080000000FFFF000000000005
:103DE00001FFFE00101F1F10101018080E07010021
:103DF00020E0E020202020202060800000FFFF1035
:103E00001010107C00000000101F1F101010101068
:103E10001018060020E0E0202020202060608000B4
:103E200000FFFF101010107C00000100101F1F1079
:103E30000000000000000000000080C06020202082
:103E400040E0000000FCFF0100004040C0C14040D5
:103E50000001070E181010100F0F000020E0E020E6
:103E60000000000020E0E02000FFFF101010101004
:103E700010FFFF00101F1F1000000000101F1F1078
:103E80000000202020E0E0202020000000000000B2
:103E900000FFFF000000000000001010101F1F10A6
:103EA0001010000000000000202020E0E020202072
:103EB00000000000000000FFFF0000000060E08044
:103EC0008080C07F3F00000020E0E020000020A0B4
:103ED0006020200000FFFF30187CE3C000000000DD
:103EE000101F1F10000001131F1C181020E0E020FD
:103EF000000000000000000000FFFF0000000000C4
:103F000000000000101F1F101010101010180600E5
:103F100020E0E0E000000000E0E0E02000FF013FE2
:103F2000FEC0E01E01FFFF00101F1000031F030072
:103F3000101F1F1020E0E0C0000000000020E02063
:103F400000FF0003071C78E08000FF00101F100036
:103F500000000000030F1F00000080C060202060F0
:103F6000C080000000FEFF010000000000FFFE0016
:103F70000001070E181010180C07010020E0E020C7
:103F80002020202060C0800000FFFF202020202073
:103F9000301F0F00101F1F10000000000000000065
:103FA000000080C060202060C080000000FEFF0193
:103FB0000000000000FFFE000001070E1111133C7D
:103FC0007C67210020E0E0202020202060C08000CD
:103FD00000FFFF101030F0D0080F0700101F1F1057
:103FE000000000030F1C10100080C0602020202063
:103FF0004040E00000070F0C1818303060E08100EE
:10400000001F0C0810101010180F070080602020EF
:1040100020E0E020202060800100000000FFFF0081
:104020000000000100000000101F1F100000000031
:1040300020E0E020000000000020E02000FFFF0062
:10404000000000000000FF0000070F181010101003
:10405000100807002060E0E02000000020E0602061
:104060000000077FF88000807C0300000000000053
:10407000071F1C070000000020E0E02000E0E02017
:104080000020E0200007FFF8E01FFFFCE01F000019
:104090000000031F0300011F03000000002060E078
:1040A000A0000020E0602000000000038F7CF8C624
:1040B000010000000010181E130001171F18100047
:1040C0002060E0E02000000020E060200000010708
:1040D0003EF8E0180700000000000010101F1F103D
:1040E0001000000000806020202020A0E0E02000E0
:1040F00000000000C0F03E0F0300000000101C1F75
:1041000017101010101806000000000000FC040436
:10411000040404000000000000FF00000000000094
:1041200000000000007F404040404000000010E0E0
:10413000000000000000000000000000031C608080
:104140000000000000000000000000030C70800070
:1041500000000404040404FC00000000000000004F
:10416000000000FF00000000000040404040407F91
:104170000000000000000010080C040C08100000F3
:10418000000000000000000000000000000000002F
:10419000000000000000000000000000000000001F
:1041A000000000000000000000000000000000000F
:1041B00080808080808080808080808000000004FB
:1041C00004080800000000000000000000000000DB
:1041D00000000000000000000000000000000000DF
:1041E000000000000000000000000000000098D85F
:1041F00044642424FCF80000000F1F18101010085D
:104200001F1F10180020E0F0000000000000000058
:104210000000FFFF180804040CF8F00000001F0F56
:1042200018101010180F030000000000000000001C
:104230000000000000E0F8180404043C380000000E
:1042400000030F0C10101010080600000000000002
:1042500000000020E0F0000000E0F81C0404040866
:10426000FFFF000000030F18101010081F0F0800B8
:104270000000000000000000000000000000E0F866
:10428000484444444C7870000000030F0C18101090
:10429000100804000000000080C0602020E0C00082
:1042A00000040404FFFF04040404000000001010D4
:1042B0001F1F101010000000000000000000000090
:1042C00000000000000070F88C04048CF874040CEA
:1042D000007076CF8D8D8D89C87870000020E0F059
:1042E00000000000000000000000FFFF08040404BC
:1042F000FCF8000000101F1F100000101F1F10000E
:1043000000000000006060000000000000000404E5
:1043100004FCFC000000000000001010101F1F1023
:1043200010100000000000000000006060000000AD
:1043300000000000040404FCFC0000000000C0C0F9
:104340008080C07F3F0000000020E0F000000000FF
:10435000000000000000FFFF80C0F41C0404000007
:1043600000101F1F1100031F1C1010000000202050
:1043700020E0F000000000000000000000FFFF004F
:104380000000000000001010101F1F10101000008F
:1043900000000000000000000000000004FCFC0819
:1043A00004FCFC0804FCFC00101F1F10001F1F1061
:1043B000001F1F10000000000000000000000000AF
:1043C0000004FCFC08080404FCF8000000101F1F97
:1043D000100000101F1F100000000000000000006F
:1043E0000000000000E0F0180C04040C18F0E000DD
:1043F00000030F0C101010100C0F03000000000041
:1044000000000000000000000004FCFC080404049C
:104410000CF8F0000080FFFF889010101C0F0300C4
:1044200000000000000000000000000000E0F81C98
:1044300004040408F8FC000000030F181010908812
:10444000FFFF8000000000000000000000000000EE
:10445000040404FCFC100804040C0C001010101FD1
:104460001F101010000000000000000000000000FD
:104470000000000000003078CCC48484840C1C0050
:1044800000001E1810101011190F06000000000087
:1044900000C000000000000000040404FFFF04044A
:1044A00004000000000000000F1F1010100C00009E
:1044B0000000000000000000000000000004FCFEFE
:1044C00000000004FCFE000000000F1F1810100880
:1044D0001F0F0800000000000000000000000000A6
:1044E00000040C3CFCC40000C43C0C0400000000B0
:1044F000010F1E0E0100000000000000000000007F
:1045000000000000043CFCC400E47CFC84807C04CB
:104510000000071F070000071F0700000000000041
:1045200000000000000000000004041C7CE4C03413
:104530001C0404000010101C1601131F1C1810008E
:1045400000000000000000000000000000040C3C1F
:10455000FCC400C43C0404000000C080C1370E014C
:10456000000000000000000000000000000000004B
:1045700000001C0404C4F47C1C0400000000101C97
:104580001F17111010180E0000000000000000F8A6
:104590000C04000000000000001028EF00000000E4
:1045A000000000000000003F60400000000000002C
:1045B0000000FF0000000000000000000000FF00FD
:1045C00000000000000000000000FF0000000000EC
:1045D0000000040CF80000000000000000000000D3
:1045E000EF28100000000000000040603F000000C5
:1045F0000000000000180602020408102020300805
:1046000000000000000000000000000000000000AA
:1046100000000000000000000202E22222FE22222E
:1046200022FE2222E20202000000FF4844434040F2
:1046300040434444FF00000004E4242464A4243FD5
:1046400024A4642424E4040000FF00080909097F6D
:1046500009090948807F0000080888680808090ED1
:1046600008088828488808008081404021221408D2
:1046700014224140808180004042CC0000E2222A86
:104680002AF22A2622E0000080403F4080FF8989EC
:1046900089BF89A9C9BF800020202020202020FFB9
:1046A000202020202020200080804020100C0300AB
:1046B000030C10204080800040301196909091961D
:1046C0009090981413503000040404040444847E31
:1046D0000605040404040400008060F807000424B4
:1046E0002425262424240400010000FF000000F9F2
:1046F0004949494949F90000000000FC5454565505
:10470000545454FC0000000040300003394141453E
:1047100059414173000830004030119690909196B5
:104720009090981413503000040404040444847ED0
:10473000060504040404040000FE225A86100C241A
:104740002425262424140C0000FF0408078041318E
:104750000F01013F414171008080EE888888E88F19
:10476000088878484E40C00000007F2424247F0041
:104770008140300F30418000000000000001E21C49
:10478000E000000000000000804020100C0300004A
:1047900000030C304080800010109090909090109A
:1047A00010FF101011161000002060203F10101094
:1047B00000030C102040F800000022322AA6A2625A
:1047C0002111098101000000004222130B42827E68
:1047D00002020A12234600002030AC63300088C871
:1047E000A8998E88A8C888002267221212804030BB
:1047F0000F00003F40407100000000C080808080BA
:10480000808080FC84808080808080C0C000000028
:10481000000000FF7F404040404040FF404040409B
:10482000404040FF7F00000000000000000000004A
:104830000000007F70000000000000000000000089
:10484000000000000000000000000000000000FC6C
:10485000F800000000000000000000000000000060
:1048600000000000FFFE020202020202020202FF3A
:10487000FF020202020202020202FF030000000025
:10488000000000001F1F040404040404040404FFC7
:10489000FF0404040404040404041F0000000000D6
:1048A0000000000000000000000000000000007F89
:1048B0003F000000000000000000000000000000B9
:1048C00000000000000000000000000000000000E8
:1048D00000000000000000000000000000F8F8F0F8
:1048E000F070200000000000000000000000000048
:1048F00000000000000000000000000000000000B8
:104900000000000000000000800000000000000027
:1049100000000000000000000000000000FFFFFF9A
:10492000FF00000000000000000000000000000088
:104930000000000080800000000000000000000077
:10494000000000000000000000FFFFFE0606060653
:1049500006060606060606060606060606FFFFFF0C
:10496000FF060606060606060606060606060606EE
:10497000060606FFFFFFFF07020000000000000020
:10498000000000000000000000FFFFFF000000002A
:1049900000000000000000000000000000FFFFFF1A
:1049A000FF00000000000000000000000000000008
:1049B000000000FFFFFFFF000000000000000000FB
:1049C000000000000000000000FFFFFF181818188A
:1049D00018181818181818181818181818FFFFFFA2
:1049E000FF18181818181818181818181818181860
:1049F000181818FFFFFFFF00000000000000000073
:104A000000000000000000000201010000000000A2
:104A100000000000000000000000000000FFFFFF99
:104A2000FF00000000000000000000000000000087
:104A30000000000101000000000000000000000074
:104A40000000000000000000000000000000000066
:104A500000000000000000000000000000FFFFFF59
:104A6000FF00000000000000000000000000000047
:104A70000000000000000000000000000000000036
:104A80000000000000000000000000000000000026
:104A9000000000000000000000000000001F1F0FC9
:104AA0000F000000000000000000000000000000F7
:104AB00000000000000000000000000000000000F6
:104AC000000610160006101600000000000000008E
:104AD00001020304060708090000000001020304A4
:104AE0004745542068747470733A2F2F6170692E93
:104AF00073656E6976657273652E636F6D2F76339D
:104B00002F776561746865722F6E6F772E6A736F89
:104B10006E3F6B65793D5339466C4146564442774A
:104B20005273326E6B3646266C6F636174696F6EBA
:104B30003D6368656E676475266C616E6775616755
:104B4000653D656E26756E69743D630A0A00000056
:104B50006162636465666768000000005265646DA9
:104B600069204B35302050726F0000008C4B0008DC
:104B7000000000202C000000BC280008B84B0008F2
:104B80002C0000209C0D0000CC2800080000000034
:104B9000000000005C4B0008504B000800000000C3
:104BA00000000000010000001000000000000000F4
:084BB0000024F40000000000E5
:040000050800019955
:00000001FF
